{
    "contractName": "owanable",
    "abi": [
        {
            "inputs": [],
            "stateMutability": "nonpayable",
            "type": "constructor"
        },
        {
            "inputs": [],
            "name": "AnyonecanAcsess",
            "outputs": [],
            "stateMutability": "nonpayable",
            "type": "function"
        },
        {
            "inputs": [],
            "name": "OnlyOwnerCanAcess",
            "outputs": [],
            "stateMutability": "nonpayable",
            "type": "function"
        },
        {
            "inputs": [],
            "name": "owner",
            "outputs": [
                {
                    "internalType": "address",
                    "name": "",
                    "type": "address"
                }
            ],
            "stateMutability": "view",
            "type": "function"
        },
        {
            "inputs": [
                {
                    "internalType": "address",
                    "name": "_newOwner",
                    "type": "address"
                }
            ],
            "name": "setOwner",
            "outputs": [],
            "stateMutability": "nonpayable",
            "type": "function"
        }
    ],
    "bytecode": "608060405234801561001057600080fd5b50600080546001600160a01b0319163317905561020e806100326000396000f3fe608060405234801561001057600080fd5b506004361061004c5760003560e01c80630567741f1461005157806313af40351461005b5780634e0574c1146100595780638da5cb5b1461006e575b600080fd5b61005961009d565b005b6100596100693660046101a8565b6100ea565b600054610081906001600160a01b031681565b6040516001600160a01b03909116815260200160405180910390f35b6000546001600160a01b031633146100e85760405162461bcd60e51b81526020600482015260096024820152683737ba1037bbb732b960b91b60448201526064015b60405180910390fd5b565b6000546001600160a01b031633146101305760405162461bcd60e51b81526020600482015260096024820152683737ba1037bbb732b960b91b60448201526064016100df565b6001600160a01b0381166101865760405162461bcd60e51b815260206004820152601960248201527f506c65617365207075742076616c69642061646464726573730000000000000060448201526064016100df565b600080546001600160a01b0319166001600160a01b0392909216919091179055565b6000602082840312156101ba57600080fd5b81356001600160a01b03811681146101d157600080fd5b939250505056fea2646970667358221220df2a80cb39ca8f4298c75d66d1ac5199717344c5af93aca0655ed212608565d164736f6c63430008130033",
    "sourcePath": "d:/All_Projects/SmartContract_Practice/SimpleSmart_Contract/Practice_code1.sol",
    "compiler": {
        "name": "solc",
        "version": "0.8.19+commit.7dd6d404"
    },
    "functionHashes": {
        "AnyonecanAcsess()": "4e0574c1",
        "OnlyOwnerCanAcess()": "0567741f",
        "owner()": "8da5cb5b",
        "setOwner(address)": "13af4035"
    },
    "gasEstimates": {
        "creation": {
            "codeDepositCost": "105200",
            "executionCost": "24388",
            "totalCost": "129588"
        },
        "external": {
            "AnyonecanAcsess()": "142",
            "OnlyOwnerCanAcess()": "2364",
            "owner()": "2369",
            "setOwner(address)": "26711"
        }
    }
}